{
  "_format": "hh-sol-artifact-1",
  "contractName": "WavePortal",
  "sourceName": "contracts/WavePortal.sol",
  "abi": [
    {
      "inputs": [],
      "stateMutability": "nonpayable",
      "type": "constructor"
    },
    {
      "inputs": [],
      "name": "getTotalWaves",
      "outputs": [
        {
          "internalType": "uint256",
          "name": "",
          "type": "uint256"
        }
      ],
      "stateMutability": "view",
      "type": "function"
    },
    {
      "inputs": [],
      "name": "wave",
      "outputs": [],
      "stateMutability": "nonpayable",
      "type": "function"
    }
  ],
  "bytecode": "0x608060405234801561001057600080fd5b5061003c6040518060600160405280603781526020016107116037913961004160201b6101061760201c565b6101c4565b6100dd816040516024016100559190610142565b6040516020818303038152906040527f41304fac000000000000000000000000000000000000000000000000000000007bffffffffffffffffffffffffffffffffffffffffffffffffffffffff19166020820180517bffffffffffffffffffffffffffffffffffffffffffffffffffffffff83818316178352505050506100e060201b60201c565b50565b60008151905060006a636f6e736f6c652e6c6f679050602083016000808483855afa5050505050565b600061011482610164565b61011e818561016f565b935061012e818560208601610180565b610137816101b3565b840191505092915050565b6000602082019050818103600083015261015c8184610109565b905092915050565b600081519050919050565b600082825260208201905092915050565b60005b8381101561019e578082015181840152602081019050610183565b838111156101ad576000848401525b50505050565b6000601f19601f8301169050919050565b61053e806101d36000396000f3fe608060405234801561001057600080fd5b50600436106100365760003560e01c80636fe15b441461003b5780639a2cdc0814610045575b600080fd5b610043610063565b005b61004d6100bb565b60405161005a91906103d9565b60405180910390f35b6000808154809291906100759061047f565b91905055506100b96040518060400160405280600d81526020017f25732068617320776176656421000000000000000000000000000000000000008152503361019f565b565b60006100fe6040518060400160405280600f81526020017f546f74616c2077617665733a202573000000000000000000000000000000000081525060005461023b565b600054905090565b61019c8160405160240161011a9190610357565b6040516020818303038152906040527f41304fac000000000000000000000000000000000000000000000000000000007bffffffffffffffffffffffffffffffffffffffffffffffffffffffff19166020820180517bffffffffffffffffffffffffffffffffffffffffffffffffffffffff83818316178352505050506102d7565b50565b61023782826040516024016101b5929190610379565b6040516020818303038152906040527f319af333000000000000000000000000000000000000000000000000000000007bffffffffffffffffffffffffffffffffffffffffffffffffffffffff19166020820180517bffffffffffffffffffffffffffffffffffffffffffffffffffffffff83818316178352505050506102d7565b5050565b6102d382826040516024016102519291906103a9565b6040516020818303038152906040527f9710a9d0000000000000000000000000000000000000000000000000000000007bffffffffffffffffffffffffffffffffffffffffffffffffffffffff19166020820180517bffffffffffffffffffffffffffffffffffffffffffffffffffffffff83818316178352505050506102d7565b5050565b60008151905060006a636f6e736f6c652e6c6f679050602083016000808483855afa5050505050565b61030981610410565b82525050565b600061031a826103f4565b61032481856103ff565b935061033481856020860161044c565b61033d816104f7565b840191505092915050565b61035181610442565b82525050565b60006020820190508181036000830152610371818461030f565b905092915050565b60006040820190508181036000830152610393818561030f565b90506103a26020830184610300565b9392505050565b600060408201905081810360008301526103c3818561030f565b90506103d26020830184610348565b9392505050565b60006020820190506103ee6000830184610348565b92915050565b600081519050919050565b600082825260208201905092915050565b600061041b82610422565b9050919050565b600073ffffffffffffffffffffffffffffffffffffffff82169050919050565b6000819050919050565b60005b8381101561046a57808201518184015260208101905061044f565b83811115610479576000848401525b50505050565b600061048a82610442565b91507fffffffffffffffffffffffffffffffffffffffffffffffffffffffffffffffff8214156104bd576104bc6104c8565b5b600182019050919050565b7f4e487b7100000000000000000000000000000000000000000000000000000000600052601160045260246000fd5b6000601f19601f830116905091905056fea2646970667358221220c7835ecc46914548c32e097108e67634562fb5e70d664d8924ec23499a6c1c8664736f6c634300080400335761766520506f7274616c20436f6e73747275637465642c20696e69746961746520667269656e646c696e6573732070726f746f636f6c",
  "linkReferences": {},
  "deployedLinkReferences": {}
}